:020000040800F2
:10000000F806002055010008830D0008810D000846
:1000100000000000000000000000000000000000E0
:10002000000000000000000000000000870D000834
:100030000000000000000000850D0008890D000888
:100040006701000800000000670100086701000860
:1000500067010008670100086701000893030008B2
:100060000000000067010008670100086701000840
:100070006701000867010008670100080000000030
:100080006701000800000000000000006701000890
:100090000000000067010008670100086701000810
:1000A0000000000067010008000000006701000870
:1000B00000F002F800F03EF80CA030C80838241810
:1000C0002D18671EA246AB4654465D46AC4201D190
:1000D00000F030F87E460F3EB6460FCC0126334284
:1000E00000D0FB1A3343A246AB46184774110000F8
:1000F00094110000103A02D378C878C1FAD8520798
:1001000001D330C830C101D504680C6070470000CD
:100110000023002400250026103A01D378C1FBD823
:10012000520700D330C100D50B6070471FB51FBD0B
:1001300010B510BD00F0FAF81146FFF7F7FF00F018
:10014000D3FF00F012F903B4FFF7F2FF03BC00F095
:1001500019F900000748804707480047FEE7FEE717
:10016000FEE7FEE7FEE7FEE704480549054A064BC1
:1001700070470000910D0008B1000008F800002051
:10018000F8060020F8020020F802002001E004C078
:10019000091F0429FBD28B0701D50280801CC907E7
:1001A00000D00270704700290BD0C30702D0027044
:1001B000401C491E022904D3830702D50280801CFB
:1001C000891EE3E70022EEE70022DFE700220309B1
:1001D0008B422CD3030A8B4211D300239C464EE062
:1001E00003460B433CD4002243088B4231D303091E
:1001F0008B421CD3030A8B4201D394463FE0C309D0
:100200008B4201D3CB01C01A524183098B4201D3E7
:100210008B01C01A524143098B4201D34B01C01AD2
:10022000524103098B4201D30B01C01A5241C3084A
:100230008B4201D3CB00C01A524183088B4201D3B9
:100240008B00C01A524143088B4201D34B00C01AA5
:100250005241411A00D201465241104670475DE0BA
:10026000CA0F00D04942031000D3404253409C467D
:10027000002203098B422DD3030A8B4212D389013A
:10028000FC2212BA030A8B420CD3890192118B42D1
:1002900008D3890192118B4204D389013AD092117B
:1002A00000E08909C3098B4201D3CB01C01A524136
:1002B00083098B4201D38B01C01A524143098B42FF
:1002C00001D34B01C01A524103098B4201D30B01E8
:1002D000C01A5241C3088B4201D3CB00C01A52410D
:1002E00083088B4201D38B00C01A5241D9D24308F4
:1002F0008B4201D34B00C01A5241411A00D2014631
:100300005241104663465B1001D34042002B00D59A
:100310004942704763465B1000D3404201B500205C
:10032000C046C04602BD704770477047754600F032
:1003300025F8AE46050069465346C008C00085460C
:1003400018B020B5FFF710FF60BCB64600260027A6
:10035000C0C5C0C5C0C5C0C5C0C5C0C5C0C5C0C575
:10036000403D490849008D46704710B50446C046D7
:10037000C0462046FFF7E7FE10BD0000004870476A
:100380001000002001491820ABBEFEE72600020045
:10039000704780B50120000300F002F880BD70476F
:1003A00080B504490A68024202D00860FFF7F7FFEF
:1003B00080BDC04614040140F0B588B004465A48D8
:1003C000844201D0052000E003200090002633463F
:1003D00032460391A1E00125049595402F400297F4
:1003E000002F00D196E006920593019648681022EE
:1003F0000243122A10D10E461C21059801400F22FB
:100400008A400698C708BF00E7193B6A93433269E0
:100410008A401A433A62706803273946019EB14008
:1004200023688B4302463A40B2401A432260C943D4
:10043000122813D8049A82403D4B1A420ED0A2686B
:100440000A40039BDB68B3401343A360C206D20F8C
:10045000069B9A406368AB4313436360E2680A40BB
:1004600003998B68B3401343E360C000059B069A71
:1004700050D55F4801460068049D2843086008681D
:100480002840079011460C221A400F2090400B463E
:10049000BB43079927495F5887435D180920C00669
:1004A000844209D02448844209D0244884420098D8
:1004B000039906D1022004E00020039901E003998A
:1004C0000498904038432860184803684A68D0036D
:1004D00002D5029D2B4301E0029DAB43134803600C
:1004E0004368900301D52B4300E0AB430F484360C2
:1004F0008368D00201D52B4300E0AB430B488360F7
:10050000C368900201D52B4300E0AB43069A07482D
:10051000C360059BB61C1B1D521C0F683846D0409B
:1005200000D058E708B0F0BD000C004800040140BE
:1005300006000600080001400004004800080048CA
:10054000002A01D0182200E02822815070470000C4
:10055000054800687047C0461A48007802490A6892
:10056000101808607047C046F000002010B5AA4877
:10057000016810220A4302600024204600F004F8BB
:1005800000F022F8204610BD70B504467D20C00062
:100590000C4E3178FFF71AFE0146A7480068FFF7B6
:1005A00015FE00F06DFB0125032C08D8002806D1AC
:1005B0000025E84321462A4600F028F874602846C2
:1005C00070BDC0460000002082B0094801680122C9
:1005D00011430160016811400191019911074268BE
:1005E0000A434260406808400090009802B070479B
:1005F00018100240002805DB1F210840012181401E
:10060000014801607047C04600E100E080B500F09D
:100610004BFD80BDF0B585B004468078C0073A4BED
:100620005CD0012211071868C0000191029202D526
:100630000020039007E01868084318601868084015
:10064000049004980392314E3068C00511D402988A
:100650000702306838433060FFF77AFF054630689C
:10066000384206D1FFF774FF401B6428F7D90325F1
:1006700046E003252802244B59680140002920D078
:100680006268024091421CD00298000459685A687E
:1006900002435A605A6882435A6008461C4A104016
:1006A0005860C8070DD0FFF753FF06465B4F164B47
:1006B0005868800705D4FFF74BFF801BB842F6D976
:1006C0001EE0586812490840616801435960039868
:1006D000002803D018680199884318602068C10772
:1006E00005D0596903229143A2680A435A61002543
:1006F000800605D5586910218843E1680143596196
:10070000284605B0F0BDC0461C10024000700040F5
:10071000FFFCFFFFF8B500282ED004463E4B1A68B8
:10072000012002408A4208D21A680126B2430A43D5
:100730001A601A6832408A426BD1009121688A0798
:1007400010D54A0706D5072212024B4B1D461B68DF
:1007500013432B60484A15461268F0239A43A36856
:1007600013432B60C9072AD06168434A121F01292D
:1007700004D11268920307E001264AE012680229B8
:1007800001D1920100E09207064642D53A4802465E
:1007900000680326B04308431060FFF7D9FE074600
:1007A0001E4D354800680C21014060688000814280
:1007B00005D0FFF7CDFEC01BA842F2D929E0164AAA
:1007C0001068012630400099884207D91068B0436C
:1007D000084310601068304088421AD120784007E2
:1007E00008D50720000224490A4609688143E068C9
:1007F0000843106000F024F81F4909680906090F32
:10080000074A515CC8400C49086000263046FFF793
:10081000BBFE304601B0F0BD00200240881300004E
:100820004812000804480068134909684905490F3F
:10083000024A515CC8407047080000205812000866
:1008400010B50D490A680C2313400C48082B08D139
:1008500093021B0F0AA4E45C896AD20303D41048F4
:1008600007E0044606E00F22114009A2515CFFF7A1
:10087000ADFC4443204610BD0410024000127A0033
:1008800002030405060708090A0B0C0D0E0F1010D1
:100890000102030405060708090A0B0C0D0E0F10D0
:1008A00000093D00F0B587B007460120002F00D1B8
:1008B000DDE104903878C007EE4E059753D071689B
:1008C0000C200140042906D071680140082909D193
:1008D0007068C00306D53068800344D57868002866
:1008E00041D16FE07968002904D001291AD1012093
:1008F00001041FE00120010432688A433260810450
:1009000032688A4332604404FFF722FE0546059FA1
:100910003068204227D0FFF71BFE411B03206429CB
:10092000F6D9A4E13068052907D101218A041043D2
:10093000306009043068084306E001210A0490434E
:100940003060890430688843306001204404FFF738
:10095000FFFD05463068204205D1FFF7F9FD401B39
:100960006428F7D956E13878800744D570680007C5
:10097000800F1BD070680C210140082902D17068DB
:10098000C00313D5059CE168306800291CD0012103
:1009900008433060FFF7DCFD05463068800723D44C
:1009A000FFF7D6FD401B0228F7D933E130688007F6
:1009B000059A02D5D068012804D13068F82188430F
:1009C000116915E0049852E1012188433060FFF776
:1009D000BFFD0546306880070DD5FFF7B9FD411B07
:1009E00003200229F6D942E13068F82188432169C1
:1009F000C90001433160059C2078000721D5E169D9
:100A0000706A00290ED0012108437062FFF7A0FD33
:100A10000546706A800714D4FFF79AFD401B022830
:100A2000F7D9F7E0012188437062FFF791FD054691
:100A3000706A800705D5FFF78BFD401B0228F7D9A8
:100A4000E8E0207840071BD42078C0067AD5059AC4
:100A5000516901294ED1706B042101437163706BA0
:100A6000012101437163FFF773FD0546706B800739
:100A700060D4FFF76DFD411B03200229F6D9F6E093
:100A800001221107F069C0000191039202D50020F4
:100A9000029007E0F0690843F061F06908400690B1
:100AA00006980292744F3868C00511D40398040266
:100AB000386820433860FFF74BFD05463868204210
:100AC00006D1FFF745FD411B03206429F6D9CEE08E
:100AD00005988168694F002917D00129039A06D02B
:100AE000306A052900D084E0042108433062306A6E
:100AF000104383E0706B491D67D104218843706304
:100B0000706BF8218843916919E0306A0399884332
:100B10003062306A042188433062FFF719FD0546D0
:100B2000306A800778D5FFF713FD411B0320B942D7
:100B3000F6D99CE0706BF821884305998969C90052
:100B4000014371630598046A002C00D18EE070683F
:100B50000C210140082917D1012C049800D186E00E
:100B60000120030471680B40F26A059D6C6AA34280
:100B70007DD10F231A40EC6AA24278D19A04114029
:100B8000AA6A914272D072E0012002063168049292
:100B9000914331604706FFF7DBFC0546022C0AD182
:100BA000049C3068384241D0FFF7D2FC411B03203F
:100BB0000229F6D95BE03068384257D0FFF7C8FC0D
:100BC000411B03200229F6D951E004210843706338
:100BD000706B012188437063FFF7BAFC0546706BA8
:100BE0008007AFD5FFF7B4FC411B03200229F6D9DB
:100BF0003DE090433062306A042188433062FFF761
:100C0000A7FC0546306A800706D4FFF7A1FC401B0D
:100C1000B842F7D903202AE002980028059C00D1A9
:100C200012E7F06901998843F0610DE7F06A0F213E
:100C30008843059AD16A0143F1623D20000471683E
:100C40008143906A0843516A0143716030682043D0
:100C50003060FFF77DFC04463068384206D1FFF76C
:100C600077FC011B03200229F6D900E0002007B021
:100C7000F0BDC04600100240007000408813000024
:100C8000401E010E01D0012070470749074A5060FD
:100C9000074803680B4003218907591801600020A9
:100CA0009060072111607047FFFFFF0010E000E037
:100CB00020ED00E0B0B500282DD00446406F00289C
:100CC00005D1702000212154204600F027F824206F
:100CD0006067206801680125A9430160204600F093
:100CE000E9F8012818D0606A002802D0204600F0F8
:100CF00050F80120C102226853688B435360916809
:100D0000082399439160116801431160204600F067
:100D10009DF8054600E001252846B0BD10B586B017
:100D2000044601A81421FFF74FFA206812498842AF
:100D30001FD101208103114A53680B43536053684C
:100D40000B4000930099410413680B431360126831
:100D50000A40009200990590002003900220029022
:100D600003200490400201900920C00601A9FFF76A
:100D700023FB06B010BDC0460038014014100240ED
:100D8000FEE770477047704780B5FFF7E5FB80BD11
:100D90007047B0B5416ACA0707D001225204036800
:100DA0005C689443826A22435A608A0707D501220D
:100DB000120403685C689443C26A22435A604A077B
:100DC00007D50122920403685C689443026B2243B6
:100DD0005A600A0707D50122D20303685C6894436E
:100DE000426B22435A60CA0607D5012212030368E8
:100DF0009C689443826B22439A608A0607D501223D
:100E0000520303689C689443C26B22439A604A066B
:100E100010D501221305026854689C43056C2C43CD
:100E200054609D4206D103235B0554689C43436C88
:100E300023435360090607D50121C904026853689A
:100E40008B43806C18435060B0BD00007CB50546F4
:100E50000024C467FFF77CFB064628680168090781
:100E60000CD5134869460860012041050022284638
:100E7000334600F0A7F800280FD128680068400723
:100E80000DD50B48694608600120810500222846DF
:100E9000334600F097F8002801D0032404E07020C6
:100EA0002C5420206867A867204602B070BDC04659
:100EB000FFFFFF01F8B50446C06962692369A568B0
:100EC00021680E68364F37401D43154305433D43A7
:100ED0000D60032212034B689343E2681A434A6091
:100EE000A269236A13430B2212028D6895431D43A6
:100EF0008D602C4909688907090F2BA251580125DB
:100F0000EA03904210D1082943D82D482B4EC04601
:100F10007944097949008F44043C1D3C173C3C3C12
:100F20001B00FFF77FFC11E0082932D82248C04699
:100F30007944097949008F44042C1F2C1B2C2C2C3C
:100F40001E00FFF76FFC17E0FFF77AFC400001E09E
:100F50003046103061684A081018FFF737F906402C
:100F6000002E16D00007400F30432168C8600FE004
:100F7000FFF766FC00E0104661684A081018FFF7AA
:100F800025F90E490F310140102902D32068C160B4
:100F90000025002020666066284601B0F0BDC046EE
:100FA000F369FFFF30100240000000000400000061
:100FB000080000000200000000127A00F0FF0000AC
:100FC0000024F400F8B516460F4604460168069D55
:100FD000C8693840C01B42424241B24224D1681C19
:100FE000F6D000941C46FFF7B3FA2346009C216814
:100FF0000A68002D1BD0C01AA84218D85007E7D5A0
:10100000C8690005E4D50120C2020A620D2252011E
:101010000B6893430B608A6882438A602020606774
:10102000A06720467C300EE0002001B0F0BD0D200E
:10103000400182430A608868012290438860202032
:101040006067204678302021016070200021215403
:101050000320EAE7F0B595B009AC201D1C21FFF78D
:10106000B3F800260496039602961496092080048D
:10107000139012960227119710200D9001250C95C0
:1010800009972046FFF70EFC08960796069707205B
:10109000059005A82946FFF73DFB0395019501A89A
:1010A000FFF7B8FA15B0F0BD002805DB03220346B0
:1010B00093430C4A9A1806E00F220240083A032391
:1010C0009A43074BD2188007C00E8901C9B28140EC
:1010D000FF23834010689843084310607047C04660
:1010E0001CED00E000E400E08AB0FFF73FFAFFF7F4
:1010F000B1FF002409940126F104474802680A431D
:10110000026002680A4004920499B10502680A4329
:10111000026002680A4004920499710402680A435A
:10112000026002680A4004920499B10402680A430A
:10113000026000680840049004980720029045036C
:101140003648374F29462246B84736480321009192
:101150002246B8470920C006039033492246B847C3
:101160006120C100019131482246B8470894079494
:101170000696059505AD2E4F28482946B847089490
:10118000079406960098059026482946B847089483
:101190000794069624480590039F38462946244A1A
:1011A0009047079406942348059038462946204FD7
:1011B000B84707940694204805901C482946B8472C
:1011C00007941E4806903003059003982946B847B7
:1011D0000894079406960198059014482946B84744
:1011E000029D284621462246FFF710FA2846FFF7BF
:1011F00001FA13480C21E1225202124B04624462AC
:10120000036042608460C460046141618461C461C0
:10121000FFF750FDFEE7C0461410024000080048EA
:101220004105000800140048078000000004004841
:10123000B903000878090000F6FC00000000311036
:101240007000002000380140000000000000000095
:10125000010203040607080900000000010203045C
:10126000801200080000002010000000F4000008B8
:101270009012000810000020E8060000100100088D
:10128000010000000400000000127A0000000000CD
:04000005080000B13E
:00000001FF
