:020000040800F2
:1000000010040020C5000008E90A0008A90900083A
:1000100000000000000000000000000000000000E0
:10002000000000000000000000000000ED0A0008D1
:100030000000000000000000EB0A0008EF0A0008C2
:10004000D700000800000000D7000008D700000813
:10005000D7000008D7000008D7000008F901000801
:1000600000000000D7000008D7000008D7000008F3
:10007000D7000008D7000008D700000800000000E3
:10008000D70000080000000000000000D7000008B2
:1000900000000000D7000008D7000008D7000008C3
:1000A00000000000D700000800000000D700000892
:1000B0000348854600F08EF800480047D90B000839
:1000C000100400200448804704480047FEE7FEE78C
:1000D000FEE7FEE7FEE7FEE7410B0008B10000087F
:1000E00030B50B46014600202022012409E00D46D0
:1000F000D5409D4205D31D469540491B2546954058
:1001000040191546521E002DF1DC30BDF0B51FB46C
:100110000646002082B005464024019100901BE075
:10012000019922460F46304600F020F8049A059BBC
:10013000801A994110D310461946224600F039F82A
:10014000361A8F410197224601200021009F00F0BE
:1001500030F838184D4100902046641E0028DFDC3E
:10016000019B00982946324607B0F0BD10B5202A01
:1001700004DB0846203AD040002110BD0B46D34096
:10018000D0402024A21A91400843194610BDD2B293
:1001900001E00270401C491EFBD270470022F6E7C6
:1001A00010B513460A4604461946FFF7F0FF2046ED
:1001B00010BD10B5202A04DB0146203A91400020F2
:1001C00010BD914020239C1A0346E3401943904000
:1001D00010BD0000064C0125064E05E0E36807CC83
:1001E0002B430C3C98471034B442F7D3FFF764FF1D
:1001F000E00D0008000E000810B50120000300F01B
:1002000013F810BD012110B50903884208D1092057
:10021000C00600F0B9F802462021024800F0B9F803
:1002200010BD00000004004810B504494A690242AC
:1002300002D04861FFF7E6FF10BD00000004014056
:10024000F8B500238DE001249C40A44622407DD0D7
:100250004C68022C01D0122C0CD1DC08A400271809
:100260003C6A5D07ED0E0F26AE40B4430E69AE400A
:1002700026433E6205685E000324B4400F79A5431F
:10028000BF07BF0FB7402F4307604D68012D05D052
:10029000022D03D0112D01D0122D0ED18568CF680B
:1002A000A543B7402F43876047686546AF430D7944
:1002B000ED06ED0F9D403D434560C568A5438C6844
:1002C000B4402C43C4604C68E40049D5284CA5696F
:1002D00001263543A561A4699D0834400094254C4E
:1002E000AD002F19BC689D072E0F0F25B540AC43FC
:1002F0000925ED06A84201D100250FE01E4DA842B8
:1003000001D101250AE01D4DA84201D1022505E0D9
:100310001B4DA84201D1032500E00525B54025432A
:10032000BD60184C25684E689543F60300D515430B
:10033000256065684E689543B60300D51543656032
:10034000A5684E689543F60202D500E008E0154323
:10035000A560E5684E689543B60200D51543E56093
:100360005B1C0A681446DC4000D06CE7F8BD000056
:10037000001002400000014000040048000800484E
:10038000000C0048000401400069084000D0012032
:100390007047002A01D08161704781627047000078
:1003A0000148806870470000000000200248816812
:1003B00002788918816070470000002010B5064857
:1003C0000168102211430160002000F007F800F0DE
:1003D00027F8002010BD00000020024070B5044640
:1003E0000D4D7D202978C000FFF77AFE01460B48AD
:1003F0000068FFF775FE00F0BFFA002809D1042C51
:1004000007D200222146401E00F02AF800206C602E
:1004100070BD012070BD0000000000200C00002015
:1004200008B5084881690122114381618169114041
:100430000091C26901040A43C261C069084000908A
:1004400008BD000000100240002805DBC106C90EEF
:1004500001208840014908607047000000E100E089
:1004600010B500F087FB10BDF8B50F46060059D057
:100470003A4D2868C007C00FB84209D22868400822
:100480004000384328602868C007C00FB84249D1EF
:100490003068334C81070CD5400704D560680721CC
:1004A0000902084360606068F0218843B16808432E
:1004B00060603078C00726D0706801280ED02168AF
:1004C00002280ED0890700292CDA61688908890082
:1004D00001436160FFF764FF00900DE0216889032C
:1004E000F1E78901EFE7FFF75BFF0099411A1D482B
:1004F000814201D90320F8BD60680C210840716871
:1005000089008842EFD12868C007C00FB8420BD9D4
:10051000286840084000384328602868C007C00F9A
:10052000B84201D00120F8BD3078400706D5606898
:10053000072109028843F1680843606000F018F859
:100540006168094A0906090F515CC84007490860FB
:100550000020FFF743FF0020F8BD0000002002400C
:100560000010024088130000D00D00080C0000208D
:1005700010B514A30FCB88B06C460FC415A30FCBD6
:100580000FC4184A51680C200B4603401648042B30
:1005900016D0082B14D18B021B0F6C46E45CD26A78
:1005A00004AB1207120F9A5CC90305D50023194644
:1005B000FFF7ACFD214601E020460C4900F0C1FAEE
:1005C00008B010BD02030405060708090A0B0C0D4C
:1005D0000E0F10100102030405060708090A0B0C90
:1005E0000D0E0F100010024000127A0000093D00AD
:1005F000FEB5040070D02078DC4DC0074AD0686892
:100600000007800F012807D068680007800F0228C4
:1006100009D16868C00306D5286880033AD56068A8
:100620000028E7D036E06168012914D00120800459
:10063000002901D0052914D02A68012109048A4320
:100640002A602968814329606068002816D0FFF776
:10065000A7FE06460EE02868012109040843286029
:10066000F2E7296801432960F5E7FFF799FE801B4F
:1006700064286ED828688003F7D50BE0FFF790FE5A
:10068000064604E0FFF78CFE801B6428F1D828683A
:100690008003F7D420780126800700283CDA6868B8
:1006A0000007800F07D068680007800F022809D173
:1006B0006868C00306D42868800716D5E06801285A
:1006C0000AD112E0E0680028286816D0304328607C
:1006D000FFF766FE074605E043E1FFF761FEC01B3A
:1006E0000228C6D828688007F7D52868F8218843EB
:1006F0002169C900084328600EE0400840002860D6
:10070000FFF74EFE074604E0FFF74AFEC01B022833
:10071000AFD828688007F7D42078000722D5E06991
:100720000028686A0ED030436862FFF739FE07463A
:1007300004E0FFF735FEC01B02289AD8686A8007DC
:10074000F7D50FE0400840006862FFF729FE074632
:1007500005E09DE0FFF724FEC01B022889D8686AE7
:100760008007F7D4207804274007002860DA0020AB
:100770000190E869C00008D4E969B8060143E9615D
:10078000E969014001200091019079480168C9059B
:1007900011D40168821511430160FFF701FE00903A
:1007A00005E0FFF7FDFD0099401A642870D87048F5
:1007B0000068C005F5D5A06801280AD0002801D03E
:1007C000052810D0286A400840002862286AB843EB
:1007D00001E0286A30432862A068002812D0FFF7A1
:1007E000DFFD00900AE0286A38432862F1E7FFF74E
:1007F000D7FD0099411A5F48814249D8286A80078D
:10080000F5D50DE0FFF7CCFD009006E0FFF7C8FD41
:100810000099411A574881423AD8286A8007F5D48E
:100820000198002804D0E969012000078143E961AB
:100830002078C00635D5606901280CD0401D686B52
:1008400023D038436863686B400840006863FFF753
:10085000A7FD064622E0686B38436863686B304347
:100860006863FFF79DFD064604E0FFF799FD801BD6
:1008700002285BD8686B8007F7D5686BF82188433E
:10088000A169C900084368630BE0B8436863F4E7F3
:100890004CE0FFF785FD801B022847D8686B800776
:1008A000F7D4206A00285ED069680907890F0229F9
:1008B00042D0012636060228286805D0B0432860B9
:1008C000FFF76EFD044633E0B0432860FFF768FD94
:1008D000074604E0FFF764FDC01B022826D82868FD
:1008E0008001F7D4E86AE16A000900010843E86280
:1008F000616AA06A084369683D2212049143084373
:100900006860286830432860FFF74AFD044604E029
:10091000FFF746FD001B022808D828688001F7D59C
:1009200021E0FFF73DFD001B022801D90320FEBD99
:1009300028688001F5D416E00128F8D06868E96AD3
:1009400001221204636A02409A420AD10907E26A4C
:10095000090F914205D10F2189040840A16A8842FC
:1009600001D00120FEBD0020FEBD000000100240AD
:100970000070004088130000094910B5401E8842ED
:1009800001D9012010BD074C60610321081F00F050
:10099000F1F80020A06107202061002010BD0000B8
:1009A000FFFFFF0000E000E0FEE70000F0B587B0C9
:1009B00014216846FFF7F2FB444842690121C9044B
:1009C0000A43426142690A4005924269C9000A43EA
:1009D000426142690A400592426949110A434261F3
:1009E00042690A400592426949000A4342614069EE
:1009F00007240840364E6403059000222146304605
:100A0000FFF7C7FC0927FF06002232493846FFF7E7
:100A1000C0FC3B21002209012F48FFF7BAFC01224C
:100A200040212D48FFF7B5FC0094002401250195D5
:100A30000294694630460394FFF702FC03200090BD
:100A40000194694602942548FFF7FAFB07200090BD
:100A500002946946019503943846FFF7F1FB20485C
:100A600000900194694602943846FFF7E9FB68025A
:100A7000009001956946039502943846FFF7E0FB24
:100A80002803009017480190694602943846FFF702
:100A9000D7FB082000900194694602940E48FFF7A6
:100AA000CFFB3F200001009002946946019503941A
:100AB0000948FFF7C5FB002211460720FFF7D0FCCD
:100AC0000720FFF7C1FC07B0F0BD00000010024096
:100AD0000008004807020000000400480014004815
:100AE000788000000000311070477047704710B5E3
:100AF000FFF75CFC10BD30B591B030216846FFF7C0
:100B00004DFB00240D94012003900E94022510202B
:100B100009940490009505200F94C0040A900C9449
:100B200008950B946846FFF763FD07200C900E9420
:100B300001210D950F940CA8FFF796FC11B030BD64
:100B40007047F8B5040C8BB2264682B25E430D0C9A
:100B50001046370C58433604801900217941164657
:100B60006E43370C36048019794126466E43891945
:100B7000F8BD00008307FF22DB0E9A408907090EAB
:100B80009940002808DB830809489B001B18186857
:100B900090430843186070470007000F0838830827
:100BA00004489B001B18D86990430843D8617047DC
:100BB00000E400E000ED00E002E008C8121F08C1F8
:100BC000002AFAD170477047002001E001C1121FCE
:100BD000002AFBD1704700000EB5FFF7EFFBFFF7CF
:100BE0008AFFFFF7E3FE01240926E403F606214607
:100BF0003046FFF7C9FB21463046FFF7C5FB714D74
:100C0000029002212846FFF7BFFB02212846FFF78A
:100C1000BBFB019008216C48FFF7B6FB08216A482E
:100C2000FFF7B2FB009001212846FFF7ADFB012141
:100C30002846FFF7A9FB654F0546002221463846A6
:100C4000FFF7A7FB002261103846FFF7A2FB002246
:100C500004213046FFF79DFB0022E1115A48FFF7BF
:100C600098FB002202213046FFF793FB0022A111DE
:100C70005548FFF78EFB002201213046FFF789FB24
:100C80000022A1103846FFF784FB00273E460124CE
:100C9000E40309202146C006FFF776FB029988424B
:100CA0000ED0029001286DD02146484C00222046EB
:100CB000FFF76FFB0022012189032046FFF769FB44
:100CC000404C02212046FFF75FFB019988420ED07D
:100CD000019001285ED0092000220421C006FFF700
:100CE00058FB0022FF2101313748FFF752FB082152
:100CF0003548FFF749FB009988420ED00090012843
:100D000050D0092000220221C006FFF742FB00223A
:100D1000012149022C48FFF73CFB01212046FFF747
:100D200033FBA8420ED00546012843D009200022FB
:100D30000121C006FFF72DFB0022012149032348B2
:100D4000FFF727FBFFF72CFB0446C01B64280AD9DA
:100D500009201021C006FFF717FB024680211A4820
:100D6000FFF717FB2746A01B642890D909204021D4
:100D7000C006FFF709FB024610211348FFF709FBE5
:100D8000264684E72146114C01222046FFF701FB4D
:100D9000012290E7092001220421C006FFF7F9FA99
:100DA00001229FE7092001220221C006FFF7F1FA84
:100DB0000122ADE7012209201146C006FFF7E9FA3A
:100DC0000122BAE700140048000400480008004867
:100DD00000000000000000000102030406070809EB
:100DE000000E00080000002010000000B80B0008F2
:100DF000100E00081000002000040000C80B0008BE
:100E000001000000040000000000000000127A0051
:04000005080000B13E
:00000001FF
